{
  "_format": "hh-sol-artifact-1",
  "contractName": "ApeDoods",
  "sourceName": "contracts/ApeDoods.sol",
  "abi": [
    {
      "inputs": [],
      "stateMutability": "nonpayable",
      "type": "constructor"
    },
    {
      "inputs": [],
      "name": "ApprovalCallerNotOwnerNorApproved",
      "type": "error"
    },
    {
      "inputs": [],
      "name": "ApprovalQueryForNonexistentToken",
      "type": "error"
    },
    {
      "inputs": [],
      "name": "ApproveToCaller",
      "type": "error"
    },
    {
      "inputs": [],
      "name": "BalanceQueryForZeroAddress",
      "type": "error"
    },
    {
      "inputs": [],
      "name": "InvalidQueryRange",
      "type": "error"
    },
    {
      "inputs": [],
      "name": "MintERC2309QuantityExceedsLimit",
      "type": "error"
    },
    {
      "inputs": [],
      "name": "MintToZeroAddress",
      "type": "error"
    },
    {
      "inputs": [],
      "name": "MintZeroQuantity",
      "type": "error"
    },
    {
      "inputs": [],
      "name": "OwnerQueryForNonexistentToken",
      "type": "error"
    },
    {
      "inputs": [],
      "name": "OwnershipNotInitializedForExtraData",
      "type": "error"
    },
    {
      "inputs": [],
      "name": "TransferCallerNotOwnerNorApproved",
      "type": "error"
    },
    {
      "inputs": [],
      "name": "TransferFromIncorrectOwner",
      "type": "error"
    },
    {
      "inputs": [],
      "name": "TransferToNonERC721ReceiverImplementer",
      "type": "error"
    },
    {
      "inputs": [],
      "name": "TransferToZeroAddress",
      "type": "error"
    },
    {
      "inputs": [],
      "name": "URIQueryForNonexistentToken",
      "type": "error"
    },
    {
      "anonymous": false,
      "inputs": [
        {
          "indexed": true,
          "internalType": "address",
          "name": "owner",
          "type": "address"
        },
        {
          "indexed": true,
          "internalType": "address",
          "name": "approved",
          "type": "address"
        },
        {
          "indexed": true,
          "internalType": "uint256",
          "name": "tokenId",
          "type": "uint256"
        }
      ],
      "name": "Approval",
      "type": "event"
    },
    {
      "anonymous": false,
      "inputs": [
        {
          "indexed": true,
          "internalType": "address",
          "name": "owner",
          "type": "address"
        },
        {
          "indexed": true,
          "internalType": "address",
          "name": "operator",
          "type": "address"
        },
        {
          "indexed": false,
          "internalType": "bool",
          "name": "approved",
          "type": "bool"
        }
      ],
      "name": "ApprovalForAll",
      "type": "event"
    },
    {
      "anonymous": false,
      "inputs": [
        {
          "indexed": true,
          "internalType": "uint256",
          "name": "fromTokenId",
          "type": "uint256"
        },
        {
          "indexed": false,
          "internalType": "uint256",
          "name": "toTokenId",
          "type": "uint256"
        },
        {
          "indexed": true,
          "internalType": "address",
          "name": "from",
          "type": "address"
        },
        {
          "indexed": true,
          "internalType": "address",
          "name": "to",
          "type": "address"
        }
      ],
      "name": "ConsecutiveTransfer",
      "type": "event"
    },
    {
      "anonymous": false,
      "inputs": [
        {
          "indexed": true,
          "internalType": "address",
          "name": "previousOwner",
          "type": "address"
        },
        {
          "indexed": true,
          "internalType": "address",
          "name": "newOwner",
          "type": "address"
        }
      ],
      "name": "OwnershipTransferred",
      "type": "event"
    },
    {
      "anonymous": false,
      "inputs": [
        {
          "indexed": true,
          "internalType": "address",
          "name": "from",
          "type": "address"
        },
        {
          "indexed": true,
          "internalType": "address",
          "name": "to",
          "type": "address"
        },
        {
          "indexed": true,
          "internalType": "uint256",
          "name": "tokenId",
          "type": "uint256"
        }
      ],
      "name": "Transfer",
      "type": "event"
    },
    {
      "inputs": [
        {
          "internalType": "address",
          "name": "to",
          "type": "address"
        },
        {
          "internalType": "uint256",
          "name": "tokenId",
          "type": "uint256"
        }
      ],
      "name": "approve",
      "outputs": [],
      "stateMutability": "nonpayable",
      "type": "function"
    },
    {
      "inputs": [
        {
          "internalType": "address",
          "name": "owner",
          "type": "address"
        }
      ],
      "name": "balanceOf",
      "outputs": [
        {
          "internalType": "uint256",
          "name": "",
          "type": "uint256"
        }
      ],
      "stateMutability": "view",
      "type": "function"
    },
    {
      "inputs": [],
      "name": "baseExtension",
      "outputs": [
        {
          "internalType": "string",
          "name": "",
          "type": "string"
        }
      ],
      "stateMutability": "view",
      "type": "function"
    },
    {
      "inputs": [],
      "name": "baseURI",
      "outputs": [
        {
          "internalType": "string",
          "name": "",
          "type": "string"
        }
      ],
      "stateMutability": "view",
      "type": "function"
    },
    {
      "inputs": [
        {
          "internalType": "uint256",
          "name": "tokenId",
          "type": "uint256"
        }
      ],
      "name": "explicitOwnershipOf",
      "outputs": [
        {
          "components": [
            {
              "internalType": "address",
              "name": "addr",
              "type": "address"
            },
            {
              "internalType": "uint64",
              "name": "startTimestamp",
              "type": "uint64"
            },
            {
              "internalType": "bool",
              "name": "burned",
              "type": "bool"
            },
            {
              "internalType": "uint24",
              "name": "extraData",
              "type": "uint24"
            }
          ],
          "internalType": "struct IERC721A.TokenOwnership",
          "name": "",
          "type": "tuple"
        }
      ],
      "stateMutability": "view",
      "type": "function"
    },
    {
      "inputs": [
        {
          "internalType": "uint256[]",
          "name": "tokenIds",
          "type": "uint256[]"
        }
      ],
      "name": "explicitOwnershipsOf",
      "outputs": [
        {
          "components": [
            {
              "internalType": "address",
              "name": "addr",
              "type": "address"
            },
            {
              "internalType": "uint64",
              "name": "startTimestamp",
              "type": "uint64"
            },
            {
              "internalType": "bool",
              "name": "burned",
              "type": "bool"
            },
            {
              "internalType": "uint24",
              "name": "extraData",
              "type": "uint24"
            }
          ],
          "internalType": "struct IERC721A.TokenOwnership[]",
          "name": "",
          "type": "tuple[]"
        }
      ],
      "stateMutability": "view",
      "type": "function"
    },
    {
      "inputs": [
        {
          "internalType": "uint256",
          "name": "tokenId",
          "type": "uint256"
        }
      ],
      "name": "getApproved",
      "outputs": [
        {
          "internalType": "address",
          "name": "",
          "type": "address"
        }
      ],
      "stateMutability": "view",
      "type": "function"
    },
    {
      "inputs": [
        {
          "internalType": "address",
          "name": "owner",
          "type": "address"
        },
        {
          "internalType": "address",
          "name": "operator",
          "type": "address"
        }
      ],
      "name": "isApprovedForAll",
      "outputs": [
        {
          "internalType": "bool",
          "name": "",
          "type": "bool"
        }
      ],
      "stateMutability": "view",
      "type": "function"
    },
    {
      "inputs": [],
      "name": "maxMintAmount",
      "outputs": [
        {
          "internalType": "uint256",
          "name": "",
          "type": "uint256"
        }
      ],
      "stateMutability": "view",
      "type": "function"
    },
    {
      "inputs": [],
      "name": "maxSupply",
      "outputs": [
        {
          "internalType": "uint256",
          "name": "",
          "type": "uint256"
        }
      ],
      "stateMutability": "view",
      "type": "function"
    },
    {
      "inputs": [],
      "name": "mint",
      "outputs": [],
      "stateMutability": "nonpayable",
      "type": "function"
    },
    {
      "inputs": [
        {
          "internalType": "address",
          "name": "",
          "type": "address"
        }
      ],
      "name": "mintedBalance",
      "outputs": [
        {
          "internalType": "uint256",
          "name": "",
          "type": "uint256"
        }
      ],
      "stateMutability": "view",
      "type": "function"
    },
    {
      "inputs": [],
      "name": "name",
      "outputs": [
        {
          "internalType": "string",
          "name": "",
          "type": "string"
        }
      ],
      "stateMutability": "view",
      "type": "function"
    },
    {
      "inputs": [],
      "name": "owner",
      "outputs": [
        {
          "internalType": "address",
          "name": "",
          "type": "address"
        }
      ],
      "stateMutability": "view",
      "type": "function"
    },
    {
      "inputs": [
        {
          "internalType": "uint256",
          "name": "_mintAmount",
          "type": "uint256"
        }
      ],
      "name": "ownerMint",
      "outputs": [],
      "stateMutability": "nonpayable",
      "type": "function"
    },
    {
      "inputs": [
        {
          "internalType": "uint256",
          "name": "tokenId",
          "type": "uint256"
        }
      ],
      "name": "ownerOf",
      "outputs": [
        {
          "internalType": "address",
          "name": "",
          "type": "address"
        }
      ],
      "stateMutability": "view",
      "type": "function"
    },
    {
      "inputs": [],
      "name": "publicsale",
      "outputs": [
        {
          "internalType": "bool",
          "name": "",
          "type": "bool"
        }
      ],
      "stateMutability": "view",
      "type": "function"
    },
    {
      "inputs": [],
      "name": "renounceOwnership",
      "outputs": [],
      "stateMutability": "nonpayable",
      "type": "function"
    },
    {
      "inputs": [
        {
          "internalType": "address",
          "name": "from",
          "type": "address"
        },
        {
          "internalType": "address",
          "name": "to",
          "type": "address"
        },
        {
          "internalType": "uint256",
          "name": "tokenId",
          "type": "uint256"
        }
      ],
      "name": "safeTransferFrom",
      "outputs": [],
      "stateMutability": "nonpayable",
      "type": "function"
    },
    {
      "inputs": [
        {
          "internalType": "address",
          "name": "from",
          "type": "address"
        },
        {
          "internalType": "address",
          "name": "to",
          "type": "address"
        },
        {
          "internalType": "uint256",
          "name": "tokenId",
          "type": "uint256"
        },
        {
          "internalType": "bytes",
          "name": "_data",
          "type": "bytes"
        }
      ],
      "name": "safeTransferFrom",
      "outputs": [],
      "stateMutability": "nonpayable",
      "type": "function"
    },
    {
      "inputs": [
        {
          "internalType": "address",
          "name": "operator",
          "type": "address"
        },
        {
          "internalType": "bool",
          "name": "approved",
          "type": "bool"
        }
      ],
      "name": "setApprovalForAll",
      "outputs": [],
      "stateMutability": "nonpayable",
      "type": "function"
    },
    {
      "inputs": [
        {
          "internalType": "string",
          "name": "_newBaseExtension",
          "type": "string"
        }
      ],
      "name": "setBaseExtension",
      "outputs": [],
      "stateMutability": "nonpayable",
      "type": "function"
    },
    {
      "inputs": [
        {
          "internalType": "string",
          "name": "_newBaseURI",
          "type": "string"
        }
      ],
      "name": "setBaseURI",
      "outputs": [],
      "stateMutability": "nonpayable",
      "type": "function"
    },
    {
      "inputs": [],
      "name": "setPublicsale",
      "outputs": [],
      "stateMutability": "nonpayable",
      "type": "function"
    },
    {
      "inputs": [
        {
          "internalType": "bytes4",
          "name": "interfaceId",
          "type": "bytes4"
        }
      ],
      "name": "supportsInterface",
      "outputs": [
        {
          "internalType": "bool",
          "name": "",
          "type": "bool"
        }
      ],
      "stateMutability": "view",
      "type": "function"
    },
    {
      "inputs": [],
      "name": "symbol",
      "outputs": [
        {
          "internalType": "string",
          "name": "",
          "type": "string"
        }
      ],
      "stateMutability": "view",
      "type": "function"
    },
    {
      "inputs": [
        {
          "internalType": "uint256",
          "name": "tokenId",
          "type": "uint256"
        }
      ],
      "name": "tokenURI",
      "outputs": [
        {
          "internalType": "string",
          "name": "",
          "type": "string"
        }
      ],
      "stateMutability": "view",
      "type": "function"
    },
    {
      "inputs": [
        {
          "internalType": "address",
          "name": "owner",
          "type": "address"
        }
      ],
      "name": "tokensOfOwner",
      "outputs": [
        {
          "internalType": "uint256[]",
          "name": "",
          "type": "uint256[]"
        }
      ],
      "stateMutability": "view",
      "type": "function"
    },
    {
      "inputs": [
        {
          "internalType": "address",
          "name": "owner",
          "type": "address"
        },
        {
          "internalType": "uint256",
          "name": "start",
          "type": "uint256"
        },
        {
          "internalType": "uint256",
          "name": "stop",
          "type": "uint256"
        }
      ],
      "name": "tokensOfOwnerIn",
      "outputs": [
        {
          "internalType": "uint256[]",
          "name": "",
          "type": "uint256[]"
        }
      ],
      "stateMutability": "view",
      "type": "function"
    },
    {
      "inputs": [],
      "name": "totalSupply",
      "outputs": [
        {
          "internalType": "uint256",
          "name": "",
          "type": "uint256"
        }
      ],
      "stateMutability": "view",
      "type": "function"
    },
    {
      "inputs": [
        {
          "internalType": "address",
          "name": "from",
          "type": "address"
        },
        {
          "internalType": "address",
          "name": "to",
          "type": "address"
        },
        {
          "internalType": "uint256",
          "name": "tokenId",
          "type": "uint256"
        }
      ],
      "name": "transferFrom",
      "outputs": [],
      "stateMutability": "nonpayable",
      "type": "function"
    },
    {
      "inputs": [
        {
          "internalType": "address",
          "name": "newOwner",
          "type": "address"
        }
      ],
      "name": "transferOwnership",
      "outputs": [],
      "stateMutability": "nonpayable",
      "type": "function"
    },
    {
      "inputs": [],
      "name": "withdraw",
      "outputs": [],
      "stateMutability": "nonpayable",
      "type": "function"
    }
  ],
  "bytecode": "0x60806040526040518060400160405280600581526020017f2e6a736f6e000000000000000000000000000000000000000000000000000000815250600a90805190602001906200005192919062000239565b506115b3600b556001600c556000600d60006101000a81548160ff0219169083151502179055503480156200008557600080fd5b506040518060400160405280600981526020017f41706520446f6f647300000000000000000000000000000000000000000000008152506040518060400160405280600581526020017f415045444400000000000000000000000000000000000000000000000000000081525081600290805190602001906200010a92919062000239565b5080600390805190602001906200012392919062000239565b50620001346200016260201b60201c565b60008190555050506200015c620001506200016b60201b60201c565b6200017360201b60201c565b6200034e565b60006001905090565b600033905090565b6000600860009054906101000a900473ffffffffffffffffffffffffffffffffffffffff16905081600860006101000a81548173ffffffffffffffffffffffffffffffffffffffff021916908373ffffffffffffffffffffffffffffffffffffffff1602179055508173ffffffffffffffffffffffffffffffffffffffff168173ffffffffffffffffffffffffffffffffffffffff167f8be0079c531659141344cd1fd0a4f28419497f9722a3daafe3b4186f6b6457e060405160405180910390a35050565b8280546200024790620002e9565b90600052602060002090601f0160209004810192826200026b5760008555620002b7565b82601f106200028657805160ff1916838001178555620002b7565b82800160010185558215620002b7579182015b82811115620002b657825182559160200191906001019062000299565b5b509050620002c69190620002ca565b5090565b5b80821115620002e5576000816000905550600101620002cb565b5090565b600060028204905060018216806200030257607f821691505b602082108114156200031957620003186200031f565b5b50919050565b7f4e487b7100000000000000000000000000000000000000000000000000000000600052602260045260246000fd5b613a88806200035e6000396000f3fe608060405234801561001057600080fd5b50600436106101fb5760003560e01c80638462151c1161011a578063c6682862116100ad578063e051b4161161007c578063e051b416146105a0578063e6524224146105d0578063e985e9c5146105da578063f19e75d41461060a578063f2fde38b14610626576101fb565b8063c668286214610518578063c87b56dd14610536578063d5abeb0114610566578063da3ef23f14610584576101fb565b8063a22cb465116100e9578063a22cb46514610492578063b88d4fde146104ae578063b94805a2146104ca578063c23dc68f146104e8576101fb565b80638462151c146103f65780638da5cb5b1461042657806395d89b411461044457806399a2557a14610462576101fb565b80633ccfd60b116101925780636352211e116101615780636352211e1461036e5780636c0360eb1461039e57806370a08231146103bc578063715018a6146103ec576101fb565b80633ccfd60b146102fc57806342842e0e1461030657806355f804b3146103225780635bbb21771461033e576101fb565b80631249c58b116101ce5780631249c58b1461029a57806318160ddd146102a4578063239c70ae146102c257806323b872dd146102e0576101fb565b806301ffc9a71461020057806306fdde0314610230578063081812fc1461024e578063095ea7b31461027e575b600080fd5b61021a60048036038101906102159190612c9a565b610642565b60405161022791906132c6565b60405180910390f35b6102386106d4565b60405161024591906132e1565b60405180910390f35b61026860048036038101906102639190612d3d565b610766565b604051610275919061321b565b60405180910390f35b61029860048036038101906102939190612bbe565b6107e2565b005b6102a2610923565b005b6102ac610b32565b6040516102b9919061341e565b60405180910390f35b6102ca610b49565b6040516102d7919061341e565b60405180910390f35b6102fa60048036038101906102f59190612aa8565b610b4f565b005b610304610e74565b005b610320600480360381019061031b9190612aa8565b610f70565b005b61033c60048036038101906103379190612cf4565b610f90565b005b61035860048036038101906103539190612c51565b611026565b6040516103659190613282565b60405180910390f35b61038860048036038101906103839190612d3d565b6110e7565b604051610395919061321b565b60405180910390f35b6103a66110f9565b6040516103b391906132e1565b60405180910390f35b6103d660048036038101906103d19190612a3b565b611187565b6040516103e3919061341e565b60405180910390f35b6103f4611240565b005b610410600480360381019061040b9190612a3b565b6112c8565b60405161041d91906132a4565b60405180910390f35b61042e611412565b60405161043b919061321b565b60405180910390f35b61044c61143c565b60405161045991906132e1565b60405180910390f35b61047c60048036038101906104779190612bfe565b6114ce565b60405161048991906132a4565b60405180910390f35b6104ac60048036038101906104a79190612b7e565b6116e2565b005b6104c860048036038101906104c39190612afb565b61185a565b005b6104d26118cd565b6040516104df91906132c6565b60405180910390f35b61050260048036038101906104fd9190612d3d565b6118e0565b60405161050f9190613403565b60405180910390f35b61052061194a565b60405161052d91906132e1565b60405180910390f35b610550600480360381019061054b9190612d3d565b6119d8565b60405161055d91906132e1565b60405180910390f35b61056e611a82565b60405161057b919061341e565b60405180910390f35b61059e60048036038101906105999190612cf4565b611a88565b005b6105ba60048036038101906105b59190612a3b565b611b1e565b6040516105c7919061341e565b60405180910390f35b6105d8611b36565b005b6105f460048036038101906105ef9190612a68565b611bde565b60405161060191906132c6565b60405180910390f35b610624600480360381019061061f9190612d3d565b611c72565b005b610640600480360381019061063b9190612a3b565b611d9b565b005b60006301ffc9a760e01b827bffffffffffffffffffffffffffffffffffffffffffffffffffffffff1916148061069d57506380ac58cd60e01b827bffffffffffffffffffffffffffffffffffffffffffffffffffffffff1916145b806106cd5750635b5e139f60e01b827bffffffffffffffffffffffffffffffffffffffffffffffffffffffff1916145b9050919050565b6060600280546106e3906136f0565b80601f016020809104026020016040519081016040528092919081815260200182805461070f906136f0565b801561075c5780601f106107315761010080835404028352916020019161075c565b820191906000526020600020905b81548152906001019060200180831161073f57829003601f168201915b5050505050905090565b600061077182611e93565b6107a7576040517fcf4700e400000000000000000000000000000000000000000000000000000000815260040160405180910390fd5b6006600083815260200190815260200160002060009054906101000a900473ffffffffffffffffffffffffffffffffffffffff169050919050565b60006107ed826110e7565b90508073ffffffffffffffffffffffffffffffffffffffff1661080e611ef2565b73ffffffffffffffffffffffffffffffffffffffff16146108715761083a81610835611ef2565b611bde565b610870576040517fcfb3b94200000000000000000000000000000000000000000000000000000000815260040160405180910390fd5b5b826006600084815260200190815260200160002060006101000a81548173ffffffffffffffffffffffffffffffffffffffff021916908373ffffffffffffffffffffffffffffffffffffffff160217905550818373ffffffffffffffffffffffffffffffffffffffff168273ffffffffffffffffffffffffffffffffffffffff167f8c5be1e5ebec7d5bd14f71427d1e84f3dd0314c0f7b2291e5b200ac8c7c3b92560405160405180910390a4505050565b3373ffffffffffffffffffffffffffffffffffffffff163273ffffffffffffffffffffffffffffffffffffffff1614610991576040517f08c379a0000000000000000000000000000000000000000000000000000000008152600401610988906133c3565b60405180910390fd5b600d60009054906101000a900460ff166109e0576040517f08c379a00000000000000000000000000000000000000000000000000000000081526004016109d790613363565b60405180910390fd5b60006109ea610b32565b9050600b546001826109fc91906135c1565b1115610a3d576040517f08c379a0000000000000000000000000000000000000000000000000000000008152600401610a3490613343565b60405180910390fd5b600c546001600e60003373ffffffffffffffffffffffffffffffffffffffff1673ffffffffffffffffffffffffffffffffffffffff16815260200190815260200160002054610a8c91906135c1565b1115610acd576040517f08c379a0000000000000000000000000000000000000000000000000000000008152600401610ac490613303565b60405180910390fd5b6001600e60003373ffffffffffffffffffffffffffffffffffffffff1673ffffffffffffffffffffffffffffffffffffffff1681526020019081526020016000206000828254610b1d91906135c1565b92505081905550610b2f336001611efa565b50565b6000610b3c611f18565b6001546000540303905090565b600c5481565b6000610b5a82611f21565b90508373ffffffffffffffffffffffffffffffffffffffff168173ffffffffffffffffffffffffffffffffffffffff1614610bc1576040517fa114810000000000000000000000000000000000000000000000000000000000815260040160405180910390fd5b600080610bcd84611fef565b91509150610be38187610bde611ef2565b612011565b610c2f57610bf886610bf3611ef2565b611bde565b610c2e576040517f59c896be00000000000000000000000000000000000000000000000000000000815260040160405180910390fd5b5b600073ffffffffffffffffffffffffffffffffffffffff168573ffffffffffffffffffffffffffffffffffffffff161415610c96576040517fea553b3400000000000000000000000000000000000000000000000000000000815260040160405180910390fd5b610ca38686866001612055565b8015610cae57600082555b600560008773ffffffffffffffffffffffffffffffffffffffff1673ffffffffffffffffffffffffffffffffffffffff168152602001908152602001600020600081546001900391905081905550600560008673ffffffffffffffffffffffffffffffffffffffff1673ffffffffffffffffffffffffffffffffffffffff1681526020019081526020016000206000815460010191905081905550610d7c85610d5888888761205b565b7c020000000000000000000000000000000000000000000000000000000017612083565b600460008681526020019081526020016000208190555060007c020000000000000000000000000000000000000000000000000000000084161415610e04576000600185019050600060046000838152602001908152602001600020541415610e02576000548114610e01578360046000838152602001908152602001600020819055505b5b505b838573ffffffffffffffffffffffffffffffffffffffff168773ffffffffffffffffffffffffffffffffffffffff167fddf252ad1be2c89b69c2b068fc378daa952ba7f163c4a11628f55a4df523b3ef60405160405180910390a4610e6c86868660016120ae565b505050505050565b610e7c6120b4565b73ffffffffffffffffffffffffffffffffffffffff16610e9a611412565b73ffffffffffffffffffffffffffffffffffffffff1614610ef0576040517f08c379a0000000000000000000000000000000000000000000000000000000008152600401610ee790613383565b60405180910390fd5b6000610efa611412565b73ffffffffffffffffffffffffffffffffffffffff1647604051610f1d90613206565b60006040518083038185875af1925050503d8060008114610f5a576040519150601f19603f3d011682016040523d82523d6000602084013e610f5f565b606091505b5050905080610f6d57600080fd5b50565b610f8b8383836040518060200160405280600081525061185a565b505050565b610f986120b4565b73ffffffffffffffffffffffffffffffffffffffff16610fb6611412565b73ffffffffffffffffffffffffffffffffffffffff161461100c576040517f08c379a000000000000000000000000000000000000000000000000000000000815260040161100390613383565b60405180910390fd5b8060099080519060200190611022929190612762565b5050565b606060008251905060008167ffffffffffffffff81111561104a576110496137e0565b5b60405190808252806020026020018201604052801561108357816020015b6110706127e8565b8152602001906001900390816110685790505b50905060005b8281146110dc576110b38582815181106110a6576110a56137b1565b5b60200260200101516118e0565b8282815181106110c6576110c56137b1565b5b6020026020010181905250806001019050611089565b508092505050919050565b60006110f282611f21565b9050919050565b60098054611106906136f0565b80601f0160208091040260200160405190810160405280929190818152602001828054611132906136f0565b801561117f5780601f106111545761010080835404028352916020019161117f565b820191906000526020600020905b81548152906001019060200180831161116257829003601f168201915b505050505081565b60008073ffffffffffffffffffffffffffffffffffffffff168273ffffffffffffffffffffffffffffffffffffffff1614156111ef576040517f8f4eb60400000000000000000000000000000000000000000000000000000000815260040160405180910390fd5b67ffffffffffffffff600560008473ffffffffffffffffffffffffffffffffffffffff1673ffffffffffffffffffffffffffffffffffffffff16815260200190815260200160002054169050919050565b6112486120b4565b73ffffffffffffffffffffffffffffffffffffffff16611266611412565b73ffffffffffffffffffffffffffffffffffffffff16146112bc576040517f08c379a00000000000000000000000000000000000000000000000000000000081526004016112b390613383565b60405180910390fd5b6112c660006120bc565b565b606060008060006112d885611187565b905060008167ffffffffffffffff8111156112f6576112f56137e0565b5b6040519080825280602002602001820160405280156113245781602001602082028036833780820191505090505b50905061132f6127e8565b6000611339611f18565b90505b8386146114045761134c81612182565b915081604001511561135d576113f9565b600073ffffffffffffffffffffffffffffffffffffffff16826000015173ffffffffffffffffffffffffffffffffffffffff161461139d57816000015194505b8773ffffffffffffffffffffffffffffffffffffffff168573ffffffffffffffffffffffffffffffffffffffff1614156113f857808387806001019850815181106113eb576113ea6137b1565b5b6020026020010181815250505b5b80600101905061133c565b508195505050505050919050565b6000600860009054906101000a900473ffffffffffffffffffffffffffffffffffffffff16905090565b60606003805461144b906136f0565b80601f0160208091040260200160405190810160405280929190818152602001828054611477906136f0565b80156114c45780601f10611499576101008083540402835291602001916114c4565b820191906000526020600020905b8154815290600101906020018083116114a757829003601f168201915b5050505050905090565b6060818310611509576040517f32c1995a00000000000000000000000000000000000000000000000000000000815260040160405180910390fd5b6000806115146121ad565b905061151e611f18565b8510156115305761152d611f18565b94505b8084111561153c578093505b600061154787611187565b90508486101561156a576000868603905081811015611564578091505b5061156f565b600090505b60008167ffffffffffffffff81111561158b5761158a6137e0565b5b6040519080825280602002602001820160405280156115b95781602001602082028036833780820191505090505b50905060008214156115d157809450505050506116db565b60006115dc886118e0565b9050600081604001516115f157816000015190505b60008990505b8881141580156116075750848714155b156116cd5761161581612182565b9250826040015115611626576116c2565b600073ffffffffffffffffffffffffffffffffffffffff16836000015173ffffffffffffffffffffffffffffffffffffffff161461166657826000015191505b8a73ffffffffffffffffffffffffffffffffffffffff168273ffffffffffffffffffffffffffffffffffffffff1614156116c157808488806001019950815181106116b4576116b36137b1565b5b6020026020010181815250505b5b8060010190506115f7565b508583528296505050505050505b9392505050565b6116ea611ef2565b73ffffffffffffffffffffffffffffffffffffffff168273ffffffffffffffffffffffffffffffffffffffff16141561174f576040517fb06307db00000000000000000000000000000000000000000000000000000000815260040160405180910390fd5b806007600061175c611ef2565b73ffffffffffffffffffffffffffffffffffffffff1673ffffffffffffffffffffffffffffffffffffffff16815260200190815260200160002060008473ffffffffffffffffffffffffffffffffffffffff1673ffffffffffffffffffffffffffffffffffffffff16815260200190815260200160002060006101000a81548160ff0219169083151502179055508173ffffffffffffffffffffffffffffffffffffffff16611809611ef2565b73ffffffffffffffffffffffffffffffffffffffff167f17307eab39ab6107e8899845ad3d59bd9653f200f220920489ca2b5937696c318360405161184e91906132c6565b60405180910390a35050565b611865848484610b4f565b60008373ffffffffffffffffffffffffffffffffffffffff163b146118c757611890848484846121b6565b6118c6576040517fd1a57ed600000000000000000000000000000000000000000000000000000000815260040160405180910390fd5b5b50505050565b600d60009054906101000a900460ff1681565b6118e86127e8565b6118f06127e8565b6118f8611f18565b83108061190c57506119086121ad565b8310155b1561191a5780915050611945565b61192383612182565b90508060400151156119385780915050611945565b61194183612316565b9150505b919050565b600a8054611957906136f0565b80601f0160208091040260200160405190810160405280929190818152602001828054611983906136f0565b80156119d05780601f106119a5576101008083540402835291602001916119d0565b820191906000526020600020905b8154815290600101906020018083116119b357829003601f168201915b505050505081565b60606119e382611e93565b611a22576040517f08c379a0000000000000000000000000000000000000000000000000000000008152600401611a19906133a3565b60405180910390fd5b6000611a2c612336565b90506000815111611a4c5760405180602001604052806000815250611a7a565b80611a56846123c8565b600a604051602001611a6a939291906131d5565b6040516020818303038152906040525b915050919050565b600b5481565b611a906120b4565b73ffffffffffffffffffffffffffffffffffffffff16611aae611412565b73ffffffffffffffffffffffffffffffffffffffff1614611b04576040517f08c379a0000000000000000000000000000000000000000000000000000000008152600401611afb90613383565b60405180910390fd5b80600a9080519060200190611b1a929190612762565b5050565b600e6020528060005260406000206000915090505481565b611b3e6120b4565b73ffffffffffffffffffffffffffffffffffffffff16611b5c611412565b73ffffffffffffffffffffffffffffffffffffffff1614611bb2576040517f08c379a0000000000000000000000000000000000000000000000000000000008152600401611ba990613383565b60405180910390fd5b600d60009054906101000a900460ff1615600d60006101000a81548160ff021916908315150217905550565b6000600760008473ffffffffffffffffffffffffffffffffffffffff1673ffffffffffffffffffffffffffffffffffffffff16815260200190815260200160002060008373ffffffffffffffffffffffffffffffffffffffff1673ffffffffffffffffffffffffffffffffffffffff16815260200190815260200160002060009054906101000a900460ff16905092915050565b611c7a6120b4565b73ffffffffffffffffffffffffffffffffffffffff16611c98611412565b73ffffffffffffffffffffffffffffffffffffffff1614611cee576040517f08c379a0000000000000000000000000000000000000000000000000000000008152600401611ce590613383565b60405180910390fd5b6000611cf8610b32565b905060008211611d3d576040517f08c379a0000000000000000000000000000000000000000000000000000000008152600401611d34906133e3565b60405180910390fd5b600b548282611d4c91906135c1565b1115611d8d576040517f08c379a0000000000000000000000000000000000000000000000000000000008152600401611d8490613343565b60405180910390fd5b611d973383611efa565b5050565b611da36120b4565b73ffffffffffffffffffffffffffffffffffffffff16611dc1611412565b73ffffffffffffffffffffffffffffffffffffffff1614611e17576040517f08c379a0000000000000000000000000000000000000000000000000000000008152600401611e0e90613383565b60405180910390fd5b600073ffffffffffffffffffffffffffffffffffffffff168173ffffffffffffffffffffffffffffffffffffffff161415611e87576040517f08c379a0000000000000000000000000000000000000000000000000000000008152600401611e7e90613323565b60405180910390fd5b611e90816120bc565b50565b600081611e9e611f18565b11158015611ead575060005482105b8015611eeb575060007c0100000000000000000000000000000000000000000000000000000000600460008581526020019081526020016000205416145b9050919050565b600033905090565b611f14828260405180602001604052806000815250612422565b5050565b60006001905090565b60008082905080611f30611f18565b11611fb857600054811015611fb75760006004600083815260200190815260200160002054905060007c010000000000000000000000000000000000000000000000000000000082161415611fb5575b6000811415611fab576004600083600190039350838152602001908152602001600020549050611f80565b8092505050611fea565b505b5b6040517fdf2d9b4200000000000000000000000000000000000000000000000000000000815260040160405180910390fd5b919050565b6000806000600690508360005280602052604060002092508254915050915091565b600073ffffffffffffffffffffffffffffffffffffffff8316925073ffffffffffffffffffffffffffffffffffffffff821691508382148383141790509392505050565b50505050565b60008060e883901c905060e86120728686846124bf565b62ffffff16901b9150509392505050565b600073ffffffffffffffffffffffffffffffffffffffff83169250814260a01b178317905092915050565b50505050565b600033905090565b6000600860009054906101000a900473ffffffffffffffffffffffffffffffffffffffff16905081600860006101000a81548173ffffffffffffffffffffffffffffffffffffffff021916908373ffffffffffffffffffffffffffffffffffffffff1602179055508173ffffffffffffffffffffffffffffffffffffffff168173ffffffffffffffffffffffffffffffffffffffff167f8be0079c531659141344cd1fd0a4f28419497f9722a3daafe3b4186f6b6457e060405160405180910390a35050565b61218a6127e8565b6121a660046000848152602001908152602001600020546124c8565b9050919050565b60008054905090565b60008373ffffffffffffffffffffffffffffffffffffffff1663150b7a026121dc611ef2565b8786866040518563ffffffff1660e01b81526004016121fe9493929190613236565b602060405180830381600087803b15801561221857600080fd5b505af192505050801561224957506040513d601f19601f820116820180604052508101906122469190612cc7565b60015b6122c3573d8060008114612279576040519150601f19603f3d011682016040523d82523d6000602084013e61227e565b606091505b506000815114156122bb576040517fd1a57ed600000000000000000000000000000000000000000000000000000000815260040160405180910390fd5b805181602001fd5b63150b7a0260e01b7bffffffffffffffffffffffffffffffffffffffffffffffffffffffff1916817bffffffffffffffffffffffffffffffffffffffffffffffffffffffff191614915050949350505050565b61231e6127e8565b61232f61232a83611f21565b6124c8565b9050919050565b606060098054612345906136f0565b80601f0160208091040260200160405190810160405280929190818152602001828054612371906136f0565b80156123be5780601f10612393576101008083540402835291602001916123be565b820191906000526020600020905b8154815290600101906020018083116123a157829003601f168201915b5050505050905090565b60606080604051019050806040528082600183039250600a81066030018353600a810490505b801561240e57600183039250600a81066030018353600a810490506123ee565b508181036020830392508083525050919050565b61242c838361257e565b60008373ffffffffffffffffffffffffffffffffffffffff163b146124ba57600080549050600083820390505b61246c60008683806001019450866121b6565b6124a2576040517fd1a57ed600000000000000000000000000000000000000000000000000000000815260040160405180910390fd5b8181106124595781600054146124b757600080fd5b50505b505050565b60009392505050565b6124d06127e8565b81816000019073ffffffffffffffffffffffffffffffffffffffff16908173ffffffffffffffffffffffffffffffffffffffff168152505060a082901c816020019067ffffffffffffffff16908167ffffffffffffffff168152505060007c01000000000000000000000000000000000000000000000000000000008316141581604001901515908115158152505060e882901c816060019062ffffff16908162ffffff1681525050919050565b600080549050600073ffffffffffffffffffffffffffffffffffffffff168373ffffffffffffffffffffffffffffffffffffffff1614156125eb576040517f2e07630000000000000000000000000000000000000000000000000000000000815260040160405180910390fd5b6000821415612626576040517fb562e8dd00000000000000000000000000000000000000000000000000000000815260040160405180910390fd5b6126336000848385612055565b600160406001901b178202600560008573ffffffffffffffffffffffffffffffffffffffff1673ffffffffffffffffffffffffffffffffffffffff168152602001908152602001600020600082825401925050819055506126aa8361269b600086600061205b565b6126a485612752565b17612083565b60046000838152602001908152602001600020819055506000819050600083830190505b818060010192508573ffffffffffffffffffffffffffffffffffffffff16600073ffffffffffffffffffffffffffffffffffffffff167fddf252ad1be2c89b69c2b068fc378daa952ba7f163c4a11628f55a4df523b3ef60405160405180910390a48082106126ce5780600081905550505061274d60008483856120ae565b505050565b60006001821460e11b9050919050565b82805461276e906136f0565b90600052602060002090601f01602090048101928261279057600085556127d7565b82601f106127a957805160ff19168380011785556127d7565b828001600101855582156127d7579182015b828111156127d65782518255916020019190600101906127bb565b5b5090506127e49190612837565b5090565b6040518060800160405280600073ffffffffffffffffffffffffffffffffffffffff168152602001600067ffffffffffffffff168152602001600015158152602001600062ffffff1681525090565b5b80821115612850576000816000905550600101612838565b5090565b60006128676128628461345e565b613439565b9050808382526020820190508285602086028201111561288a57612889613814565b5b60005b858110156128ba57816128a08882612a26565b84526020840193506020830192505060018101905061288d565b5050509392505050565b60006128d76128d28461348a565b613439565b9050828152602081018484840111156128f3576128f2613819565b5b6128fe8482856136ae565b509392505050565b6000612919612914846134bb565b613439565b90508281526020810184848401111561293557612934613819565b5b6129408482856136ae565b509392505050565b600081359050612957816139f6565b92915050565b600082601f8301126129725761297161380f565b5b8135612982848260208601612854565b91505092915050565b60008135905061299a81613a0d565b92915050565b6000813590506129af81613a24565b92915050565b6000815190506129c481613a24565b92915050565b600082601f8301126129df576129de61380f565b5b81356129ef8482602086016128c4565b91505092915050565b600082601f830112612a0d57612a0c61380f565b5b8135612a1d848260208601612906565b91505092915050565b600081359050612a3581613a3b565b92915050565b600060208284031215612a5157612a50613823565b5b6000612a5f84828501612948565b91505092915050565b60008060408385031215612a7f57612a7e613823565b5b6000612a8d85828601612948565b9250506020612a9e85828601612948565b9150509250929050565b600080600060608486031215612ac157612ac0613823565b5b6000612acf86828701612948565b9350506020612ae086828701612948565b9250506040612af186828701612a26565b9150509250925092565b60008060008060808587031215612b1557612b14613823565b5b6000612b2387828801612948565b9450506020612b3487828801612948565b9350506040612b4587828801612a26565b925050606085013567ffffffffffffffff811115612b6657612b6561381e565b5b612b72878288016129ca565b91505092959194509250565b60008060408385031215612b9557612b94613823565b5b6000612ba385828601612948565b9250506020612bb48582860161298b565b9150509250929050565b60008060408385031215612bd557612bd4613823565b5b6000612be385828601612948565b9250506020612bf485828601612a26565b9150509250929050565b600080600060608486031215612c1757612c16613823565b5b6000612c2586828701612948565b9350506020612c3686828701612a26565b9250506040612c4786828701612a26565b9150509250925092565b600060208284031215612c6757612c66613823565b5b600082013567ffffffffffffffff811115612c8557612c8461381e565b5b612c918482850161295d565b91505092915050565b600060208284031215612cb057612caf613823565b5b6000612cbe848285016129a0565b91505092915050565b600060208284031215612cdd57612cdc613823565b5b6000612ceb848285016129b5565b91505092915050565b600060208284031215612d0a57612d09613823565b5b600082013567ffffffffffffffff811115612d2857612d2761381e565b5b612d34848285016129f8565b91505092915050565b600060208284031215612d5357612d52613823565b5b6000612d6184828501612a26565b91505092915050565b6000612d7683836130ef565b60808301905092915050565b6000612d8e83836131a8565b60208301905092915050565b612da381613617565b82525050565b612db281613617565b82525050565b6000612dc382613521565b612dcd8185613567565b9350612dd8836134ec565b8060005b83811015612e09578151612df08882612d6a565b9750612dfb8361354d565b925050600181019050612ddc565b5085935050505092915050565b6000612e218261352c565b612e2b8185613578565b9350612e36836134fc565b8060005b83811015612e67578151612e4e8882612d82565b9750612e598361355a565b925050600181019050612e3a565b5085935050505092915050565b612e7d81613629565b82525050565b612e8c81613629565b82525050565b6000612e9d82613537565b612ea78185613589565b9350612eb78185602086016136bd565b612ec081613828565b840191505092915050565b6000612ed682613542565b612ee081856135a5565b9350612ef08185602086016136bd565b612ef981613828565b840191505092915050565b6000612f0f82613542565b612f1981856135b6565b9350612f298185602086016136bd565b80840191505092915050565b60008154612f42816136f0565b612f4c81866135b6565b94506001821660008114612f675760018114612f7857612fab565b60ff19831686528186019350612fab565b612f818561350c565b60005b83811015612fa357815481890152600182019150602081019050612f84565b838801955050505b50505092915050565b6000612fc16024836135a5565b9150612fcc82613839565b604082019050919050565b6000612fe46026836135a5565b9150612fef82613888565b604082019050919050565b60006130076016836135a5565b9150613012826138d7565b602082019050919050565b600061302a6018836135a5565b915061303582613900565b602082019050919050565b600061304d6020836135a5565b915061305882613929565b602082019050919050565b6000613070602f836135a5565b915061307b82613952565b604082019050919050565b600061309360008361359a565b915061309e826139a1565b600082019050919050565b60006130b6601e836135a5565b91506130c1826139a4565b602082019050919050565b60006130d9601b836135a5565b91506130e4826139cd565b602082019050919050565b6080820160008201516131056000850182612d9a565b50602082015161311860208501826131c6565b50604082015161312b6040850182612e74565b50606082015161313e6060850182613199565b50505050565b60808201600082015161315a6000850182612d9a565b50602082015161316d60208501826131c6565b5060408201516131806040850182612e74565b5060608201516131936060850182613199565b50505050565b6131a281613681565b82525050565b6131b181613690565b82525050565b6131c081613690565b82525050565b6131cf8161369a565b82525050565b60006131e18286612f04565b91506131ed8285612f04565b91506131f98284612f35565b9150819050949350505050565b600061321182613086565b9150819050919050565b60006020820190506132306000830184612da9565b92915050565b600060808201905061324b6000830187612da9565b6132586020830186612da9565b61326560408301856131b7565b81810360608301526132778184612e92565b905095945050505050565b6000602082019050818103600083015261329c8184612db8565b905092915050565b600060208201905081810360008301526132be8184612e16565b905092915050565b60006020820190506132db6000830184612e83565b92915050565b600060208201905081810360008301526132fb8184612ecb565b905092915050565b6000602082019050818103600083015261331c81612fb4565b9050919050565b6000602082019050818103600083015261333c81612fd7565b9050919050565b6000602082019050818103600083015261335c81612ffa565b9050919050565b6000602082019050818103600083015261337c8161301d565b9050919050565b6000602082019050818103600083015261339c81613040565b9050919050565b600060208201905081810360008301526133bc81613063565b9050919050565b600060208201905081810360008301526133dc816130a9565b9050919050565b600060208201905081810360008301526133fc816130cc565b9050919050565b60006080820190506134186000830184613144565b92915050565b600060208201905061343360008301846131b7565b92915050565b6000613443613454565b905061344f8282613722565b919050565b6000604051905090565b600067ffffffffffffffff821115613479576134786137e0565b5b602082029050602081019050919050565b600067ffffffffffffffff8211156134a5576134a46137e0565b5b6134ae82613828565b9050602081019050919050565b600067ffffffffffffffff8211156134d6576134d56137e0565b5b6134df82613828565b9050602081019050919050565b6000819050602082019050919050565b6000819050602082019050919050565b60008190508160005260206000209050919050565b600081519050919050565b600081519050919050565b600081519050919050565b600081519050919050565b6000602082019050919050565b6000602082019050919050565b600082825260208201905092915050565b600082825260208201905092915050565b600082825260208201905092915050565b600081905092915050565b600082825260208201905092915050565b600081905092915050565b60006135cc82613690565b91506135d783613690565b9250827fffffffffffffffffffffffffffffffffffffffffffffffffffffffffffffffff0382111561360c5761360b613753565b5b828201905092915050565b600061362282613661565b9050919050565b60008115159050919050565b60007fffffffff0000000000000000000000000000000000000000000000000000000082169050919050565b600073ffffffffffffffffffffffffffffffffffffffff82169050919050565b600062ffffff82169050919050565b6000819050919050565b600067ffffffffffffffff82169050919050565b82818337600083830152505050565b60005b838110156136db5780820151818401526020810190506136c0565b838111156136ea576000848401525b50505050565b6000600282049050600182168061370857607f821691505b6020821081141561371c5761371b613782565b5b50919050565b61372b82613828565b810181811067ffffffffffffffff8211171561374a576137496137e0565b5b80604052505050565b7f4e487b7100000000000000000000000000000000000000000000000000000000600052601160045260246000fd5b7f4e487b7100000000000000000000000000000000000000000000000000000000600052602260045260246000fd5b7f4e487b7100000000000000000000000000000000000000000000000000000000600052603260045260246000fd5b7f4e487b7100000000000000000000000000000000000000000000000000000000600052604160045260246000fd5b600080fd5b600080fd5b600080fd5b600080fd5b600080fd5b6000601f19601f8301169050919050565b7f6d6178204e4654206c696d697420657863656564656420666f7220746869732060008201527f7573657200000000000000000000000000000000000000000000000000000000602082015250565b7f4f776e61626c653a206e6577206f776e657220697320746865207a65726f206160008201527f6464726573730000000000000000000000000000000000000000000000000000602082015250565b7f6d6178204e4654206c696d697420657863656564656400000000000000000000600082015250565b7f7075626c696373616c65206973206e6f74206163746976650000000000000000600082015250565b7f4f776e61626c653a2063616c6c6572206973206e6f7420746865206f776e6572600082015250565b7f4552433732314d657461646174613a2055524920717565727920666f72206e6f60008201527f6e6578697374656e7420746f6b656e0000000000000000000000000000000000602082015250565b50565b7f63616e6e6f742062652063616c6c6564206279206120636f6e74726163740000600082015250565b7f6e65656420746f206d696e74206174206c656173742031204e46540000000000600082015250565b6139ff81613617565b8114613a0a57600080fd5b50565b613a1681613629565b8114613a2157600080fd5b50565b613a2d81613635565b8114613a3857600080fd5b50565b613a4481613690565b8114613a4f57600080fd5b5056fea2646970667358221220f58e6157717fc7003b18d09d92f8e0c704b5f547f90a068940aa59ed0b32c6bb64736f6c63430008070033",
  "linkReferences": {},
  "deployedLinkReferences": {}
}